S01300006D73635F72775F626C6F636B2E733337EC
S113000000800120F10100001D0200001D0200001B
S11300101D0200001D0200001D0200001D02000060
S11300201D0200001D0200001D0200001D02000050
S11300301D0200001C0200001D0200001D02000041
S11300401D0200001D0200001D0200001D02000030
S11300501D0200001D0200001D0200001D02000020
S11300601D0200001D0200001D0200001D02000010
S11300701D0200001D0200001D0200001D02000000
S11300801D0200001D0200001D0200001D020000F0
S11300901D0200001D0200001D0200001D020000E0
S11300A01D0200001D0200001D0200001D020000D0
S11300B01D0200001D0200001D0200001D020000C0
S11300C01D0200001D0200001D0200001D020000B0
S11300D01D0200001D0200001D0200001D020000A0
S11300E01D0200001D0200001D0200001D02000090
S11300F01D0200001D0200001D0200001D02000080
S11301001D0200001D0200001D0200001D0200006F
S11301101D0200001D0200001D0200001D0200005F
S11301201D0200001D0200001D0200001D0200004F
S11301301D02000010B5054C237833B9044B13B1EC
S1130140044800E000BF0123237010BD68000020B4
S1130150000000002409000008B5034B1BB103494B
S1130160034800E000BF08BD000000006C00002050
S113017024090000A3F5803A704700BF174B002BF9
S113018008BF134B9D46FFF7F5FF00218B460F4632
S11301901348144A121A00F0ADF90E4B002B00D08C
S11301A098470D4B002B00D09847002000210400F5
S11301B00D000D48002802D00C4800E000BF00F0FC
S11301C075F92000290000F007F900F05BF900BF81
S11301D00000080000000000000000000080012072
S11301E068000020840000200000000000000000DF
S11301F0064880470649074A074B9A42BEBF51F852
S1130200040B42F8040BF8E7FFF7B8FF21020000E3
S1130210300900000000002068000020FEE700BF55
S1130220044B054A9A60D3F8882042F47002C3F85C
S11302308820704700ED00E00000000043680BB91F
S113024005E05B685A68012AFBD159607047416038
S1130250704700BFC369032B04D800EB830201334A
S1130260D160C361704700BFC16904291CD84FF035
S1130270984210B4136CDB02FCD50B1D9B00136574
S113028004681460446814608468146049B14FF0D1
S113029098410C30103B034450F8042B98420A60F8
S11302A0FAD15DF8044B7047704700BF054B5B699A
S11302B0C3F3851103F03F021B0B8170427003707E
S11302C0704700BF00C00740B0F5802F2AD009D97D
S11302D0B0F5302F24D00FD9B0F57F0F14BF012013
S11302E006207047B0F5003F18D00ED9B0F5403F56
S11302F014BF01202C207047B0F5E02F0CD0B0F5CE
S1130300202F14BF01201020704730B1B0F5803F7A
S113031014BF012048207047212070472A207047CD
S1130320112070474B20704780B108B5FFF79CFF40
S11303304FF09842536CDB02FCD5506D10F47020E2
S113034000D108BDBDE80840FFF7BEBF21207047BB
S113035030B3F0B504460E461D4685B0E2B1002325
S1130360012701920F4AC4E90133E3612046226068
S113037001A945F0005202970392FFF75FFF31464F
S11303802046FFF767FF20462946FFF763FF204614
S1130390FFF7CAFF05B0F0BD002BE0D02120F9E73C
S11303A0212070470000094378B1002310B50446AA
S11303B0074A8360C0E90023C3610649FFF74AFF87
S11303C02046BDE81040FFF7AFBF2120704700BFB3
S11303D000000A43AD7E1EDE00B589B06846FFF713
S11303E065FF204A936DDB0313D4536B23F4FF039F
S11303F023F4FE4343F4BC1343F4A0635363136B2D
S113040023F4704343F440431363136B43F4E063F6
S113041013639DF80130012B11D0134A6846D2F8BA
S1130420803043F00303C2F88030FFF7BDFF4FF480
S11304308063002168460D4AFFF78AFFFEE79DF8B6
S11304400030002BE9D14FF0005E094C09480A49FD
S11304500A4A0B4BDEF800502468006809681268E9
S11304601B68DAE700C0004000800040200500005F
S1130470004000200080002000C000200000012077
S11304800040012008B5074B044613B1002100E0E9
S113049000BF054B1868836A03B19847204600F0F3
S11304A031F800BF000000002009000070B50D4DB8
S11304B000260D4C641BA410A64209D10B4D002646
S11304C00B4C00F021F8641BA410A64205D170BDAA
S11304D055F8043B01369847EEE755F8043B0136DE
S11304E09847F2E7600000206000002060000020D0
S11304F06400002002440346934200D1704703F88D
S1130500011BF9E7FEE700BFF8B500BFF8BC08BC63
S11305109E467047F8B500BFF8BC08BC9E467047BD
S1130520FFFFFFFFFFFFFFFFFFFFFFFFFFFFFFFFD7
S1130530FFFFFFFFFFFFFFFFFFFFFFFFFFFFFFFFC7
S1130540FFFFFFFFFFFFFFFFFFFFFFFFFFFFFFFFB7
S1130550FFFFFFFFFFFFFFFFFFFFFFFFFFFFFFFFA7
S1130560FFFFFFFFFFFFFFFFFFFFFFFFFFFFFFFF97
S1130570FFFFFFFFFFFFFFFFFFFFFFFFFFFFFFFF87
S1130580FFFFFFFFFFFFFFFFFFFFFFFFFFFFFFFF77
S1130590FFFFFFFFFFFFFFFFFFFFFFFFFFFFFFFF67
S11305A0FFFFFFFFFFFFFFFFFFFFFFFFFFFFFFFF57
S11305B0FFFFFFFFFFFFFFFFFFFFFFFFFFFFFFFF47
S11305C0FFFFFFFFFFFFFFFFFFFFFFFFFFFFFFFF37
S11305D0FFFFFFFFFFFFFFFFFFFFFFFFFFFFFFFF27
S11305E0FFFFFFFFFFFFFFFFFFFFFFFFFFFFFFFF17
S11305F0FFFFFFFFFFFFFFFFFFFFFFFFFFFFFFFF07
S1130600FFFFFFFFFFFFFFFFFFFFFFFFFFFFFFFFF6
S1130610FFFFFFFFFFFFFFFFFFFFFFFFFFFFFFFFE6
S1130620FFFFFFFFFFFFFFFFFFFFFFFFFFFFFFFFD6
S1130630FFFFFFFFFFFFFFFFFFFFFFFFFFFFFFFFC6
S1130640FFFFFFFFFFFFFFFFFFFFFFFFFFFFFFFFB6
S1130650FFFFFFFFFFFFFFFFFFFFFFFFFFFFFFFFA6
S1130660FFFFFFFFFFFFFFFFFFFFFFFFFFFFFFFF96
S1130670FFFFFFFFFFFFFFFFFFFFFFFFFFFFFFFF86
S1130680FFFFFFFFFFFFFFFFFFFFFFFFFFFFFFFF76
S1130690FFFFFFFFFFFFFFFFFFFFFFFFFFFFFFFF66
S11306A0FFFFFFFFFFFFFFFFFFFFFFFFFFFFFFFF56
S11306B0FFFFFFFFFFFFFFFFFFFFFFFFFFFFFFFF46
S11306C0FFFFFFFFFFFFFFFFFFFFFFFFFFFFFFFF36
S11306D0FFFFFFFFFFFFFFFFFFFFFFFFFFFFFFFF26
S11306E0FFFFFFFFFFFFFFFFFFFFFFFFFFFFFFFF16
S11306F0FFFFFFFFFFFFFFFFFFFFFFFFFFFFFFFF06
S1130700FFFFFFFFFFFFFFFFFFFFFFFFFFFFFFFFF5
S1130710FFFFFFFFFFFFFFFFFFFFFFFFFFFFFFFFE5
S11307205452414446524962756C624531345753C0
S1130730676C6F62656F70616C3437306C6DFFFF8E
S1130740FFFFFFFFFFFFFFFFFFFFFFFFFFFFFFFFB5
S1130750FF4C4544323030324735FFFFFFFFFFFF87
S1130760FFFF0005D98AC2C3FFFF01580200004001
S11307701400FFFFFFFFFFFFFFFFFFFFFFFFFFFF6F
S1130780FFFFFFFFFFFFFFFFFFFFFFFFFFFFFFFF75
S1130790FFFFFFFFFFFFFFFFFFFFFFFFFFFFFFFF65
S11307A0FFFFFFFF0000000000000000FFFFFB044C
S11307B0FFFFFFFFFFFFFF5F6455FFFFFFFFFFFF2A
S11307C0FFFFFFFFFFFFFFFFFFFFFFFFFFFFFFFF35
S11307D0FFFFFFFFFFFFFFFFFFFFFFFFFFFFFFFF25
S11307E0FFFFFFFFFFFFFFFFFFFFFFFFFFFFFFFF15
S11307F0FFFFFFFFFFFFFFFFFFFFFFFFFFFFFFFF05
S1130800FFFFFFFFFFFFFFFFFFFFFFFFFFFFFFFFF4
S1130810FFFFFFFFFFFFFFFFFFFFFFFFFFFFFFFFE4
S1130820FFFFFFFFFFFFFFFFFFFFFFFFFFFFFFFFD4
S1130830FFFFFFFFFFFFFFFFFFFFFFFFFFFFFFFFC4
S1130840FFFFFFFFFFFFFFFFFFFFFFFFFFFFFFFFB4
S1130850FFFFFFFFFFFFFFFFFFFFFFFFFFFFFFFFA4
S1130860FFFFFFFFFFFFFFFFFFFFFFFFFFFFFFFF94
S1130870FFFFFFFFFFFFFFFFFFFFFFFFFFFFFFFF84
S1130880FFFFFFFFFFFFFFFFFFFFFFFFFFFFFFFF74
S1130890FFFFFFFFFFFFFFFFFFFFFFFFFFFFFFFF64
S11308A0FFFFFFFFFFFFFFFFFFFFFFFFFFFFFFFF54
S11308B0FFFFFFFFFFFFFFFFFFFFFFFFFFFFFFFF44
S11308C0FFFFFFFFFFFFFFFFFFFFFFFFFFFFFFFF34
S11308D0FFFFFFFFFFFFFFFFFFFFFFFFFFFFFFFF24
S11308E0FFFFFFFFFFFFFFFFFFFFFFFFFFFFFFFF14
S11308F0FFFFFFFFFFFFFFFFFFFFFFFFFFFFFFFF04
S1130900FFFFFFFFFFFFFFFFFFFFFFFFFFFFFFFFF3
S1130910FFFFFFFFFFFFFFFFFFFFFFFFFFFFFFFFE3
S10B09200000002000000000AB
S10B09284CF8FF7F0100000000
S113093000000000000000000000000000000000B3
S113094000000000000000000000000000000000A3
S11309500000000000000000000000000000000093
S11309600000000000000000000000000000000083
S11309700000000000000000000000000000000073
S11309800000000000000000000000000000000063
S10B09905901000035010000CB
S90301F10A
