S0160000636C6561725F557365725F646174612E733337E0
S113000000800120F10100001D0200001D0200001B
S11300101D0200001D0200001D0200001D02000060
S11300201D0200001D0200001D0200001D02000050
S11300301D0200001C0200001D0200001D02000041
S11300401D0200001D0200001D0200001D02000030
S11300501D0200001D0200001D0200001D02000020
S11300601D0200001D0200001D0200001D02000010
S11300701D0200001D0200001D0200001D02000000
S11300801D0200001D0200001D0200001D020000F0
S11300901D0200001D0200001D0200001D020000E0
S11300A01D0200001D0200001D0200001D020000D0
S11300B01D0200001D0200001D0200001D020000C0
S11300C01D0200001D0200001D0200001D020000B0
S11300D01D0200001D0200001D0200001D020000A0
S11300E01D0200001D0200001D0200001D02000090
S11300F01D0200001D0200001D0200001D02000080
S11301001D0200001D0200001D0200001D0200006F
S11301101D0200001D0200001D0200001D0200005F
S11301201D0200001D0200001D0200001D0200004F
S11301301D02000010B5054C237833B9044B13B1EC
S1130140044800E000BF0123237010BD68000020B4
S113015000000000B404000008B5034B1BB10349C0
S1130160034800E000BF08BD000000006C00002050
S1130170B4040000A3F5803A704700BF174B002B6E
S113018008BF134B9D46FFF7F5FF00218B460F4632
S11301901348144A121A00F075F90E4B002B00D0C4
S11301A098470D4B002B00D09847002000210400F5
S11301B00D000D48002802D00C4800E000BF00F0FC
S11301C03DF92000290000F0CFF800F023F900BF2A
S11301D00000080000000000000000000080012072
S11301E068000020A80000200000000000000000BB
S11301F0064880470649074A074B9A42BEBF51F852
S1130200040B42F8040BF8E7FFF7B8FF21020000E3
S1130210C00400000000002068000020FEE700BFCA
S1130220044B054A9A60D3F8882042F47002C3F85C
S11302308820704700ED00E000000000C369032B34
S113024004D800EB83020133D160C361704700BF5F
S1130250C16904291CD84FF0984210B4136CDB0216
S1130260FCD50B1D9B00136504681460446814607E
S11302708468146049B14FF098410C30103B03443A
S113028050F8042B98420A60FAD15DF8044B704789
S1130290704700BF054B5B69C3F3851103F03F0250
S11302A01B0B817042700370704700BF00C0074091
S11302B0B0F5802F2AD009D9B0F5302F24D00FD92A
S11302C0B0F57F0F14BF012006207047B0F5003F42
S11302D018D00ED9B0F5403F14BF01202C20704730
S11302E0B0F5E02F0CD0B0F5202F14BF0120102062
S11302F0704730B1B0F5803F14BF012048207047EB
S1130300212070472A207047112070474B207047E6
S113031080B108B5FFF79CFF4FF09842536CDB02A5
S1130320FCD5506D10F4702000D108BDBDE8084024
S1130330FFF7BEBF2120704778B1002310B50446F3
S1130340074A8360C0E90023C3610649FFF776FFCB
S11303502046BDE81040FFF7DBBF2120704700BFF7
S113036000000A43AD7E1EDE30B583B001A8FFF75E
S113037091FF1F4A936DDB0313D4536B23F4FF03E4
S113038023F4FE4343F4BC1343F4A0635363136B9D
S113039023F4704343F440431363136B43F4E06367
S11303A013639DF80530012B0FD0124A1248D2F87E
S11303B0803043F00303C2F88030FFF7BDFF4FF0F5
S11303C07E620E4BD2681A60FEE79DF80430002B63
S11303D0EBD14FF0005E0A4C0A480B490B4A0C4B18
S11303E0DEF8005024680068096812681B68DCE7BE
S11303F000C00040008000408800002084000020ED
S1130400004000200080002000C0002000000120E7
S11304100040012008B5074B044613B1002100E059
S113042000BF054B1868836A03B19847204600F063
S113043031F800BF00000000B004000070B50D4D9D
S113044000260D4C641BA410A64209D10B4D0026B6
S11304500B4C00F021F8641BA410A64205D170BD1A
S113046055F8043B01369847EEE755F8043B01364E
S11304709847F2E760000020600000206000002040
S11304806400002002440346934200D1704703F8FD
S1130490011BF9E7FEE700BFF8B500BFF8BC08BCD4
S11304A09E467047F8B500BFF8BC08BC9E4670472E
S10B04B0000000200000000020
S10B04B8BCFCFF7F0100000001
S11304C00000000000000000000000000000000028
S11304D00000000000000000000000000000000018
S11304E00000000000000000000000000000000008
S11304F000000000000000000000000000000000F8
S113050000000000000000000000000000000000E7
S113051000000000000000000000000000000000D7
S10B052059010000350100003F
S90301F10A
